:04000000020079324F
:01000B0032C2
:0100130032BA
:01001B0032B2
:0100230032AA
:01002B0032A2
:01003300329A
:01003B003292
:0300430002072091
:2000D200750A6A750B09750C80750D6D750E09750F80751087751109751280E4F515F51681
:2000F20075174075189CC200C201C202903D007412F0903D017401F0903D02E4F0A374027E
:20011200F0903D04E4F0903D05F0903D06F0903D077440F0903D087499F0A37411F0903D84
:200132000A7417F0A3E4F0903D0CF0A37401F0903D0E7401F0903D0F7402F0903D10E4F0AD
:20015200903D117401F0903D20740AF0903D217406F0903D22E4F0A37402F0903D24E4F006
:20017200903D25F0903D26F0903D277440F0903D287401F0903D307409F0903D317402F0E8
:20019200903D327420F0A3E4F0903D347401F0903D357401F0903D36E4F0903D3774A0F0A7
:2001B200903D38741EF0903D397409F0903D3A7404F0903D3BE4F0903D3CF0903D3D74026F
:2001D200F0903D3E74FFF0903D3F74FFF0903D4074FFF0903D41E4F0903D427407F0903DA7
:2001F200437405F0903D447486F0903D457402F0903D46E4F0A37402F0903D48E4F0903D28
:20021200497407F0903D4A7405F0903D4B7402F0903D4C7402F0903D4DE4F0A37402F09014
:070232003D4FE4F00200461D
:0500460012090580FE17
:20023900AD82AE83AFF07B007C008D828E838FF0120940F8A3120940F9A3120940FAE4C02A
:20025900E0E4C0E0E4C0E0888289838AF012004B158115811581600E74032DFDE43EFE0BB4
:20027900BB00C70C80C48B828C832290E6B8E0FF530760BF0002800302071090E6B9E0FF23
:2002990024F45003020706EF2F2F9002A7730205130205B502070602066C0207060207065B
:2002B9000202CB0207060204FF0204F60204A50204D390E6BBE0FFBF01028019BF02028014
:2002D90046BF03030203BABF06028022BF070302036D02049A7E007F3D8F0690E6B3EEF021
:2002F9007E007F3D7F0090E6B4EEF00207187E207F3D8F0690E6B3EEF07E207F3D7F0090A4
:20031900E6B4EEF0020718903D317402F090E680E0FF30E714903D46E4F0A37402F0903D0A
:200339004DE4F0A37402F08012903D467440F0A3E4F0903D4D7440F0A3E4F07E307F3D8F8C
:200359000690E6B3EEF07E307F3D7F0090E6B4EEF0020718903D317407F090E680E0FF30F7
:20037900E714903D467440F0A3E4F0903D4D7440F0A3E4F08012903D46E4F0A37402F090F4
:200399003D4DE4F0A37402F07E307F3D8F0690E6B3EEF07E307F3D7F0090E6B4EEF00207DD
:2003B9001890E6BAE0FF90000A75F040C007120239AD82AE83D0077C00C3EF9DEC64808E4A
:2003D900F063F08095F0400B90E6A0E0FF4401F0020718E4F513F514C3E513941FE5146466
:2003F900809480507B90E6BAE075F003A4240AF987030987040987051919E5132BFBE51446
:200419003CFC8B828C838DF01209406053E51325E0FD24022440FBE434E7FC90E6BAE075E5
:20043900F003A4240AF987020987060987071919E5132AFAE5143EFE8A828E838FF01209F5
:2004590040FA8B828C83F074032D2440F582E434E7F583E4F00513E4B5130205140203F19E
:20047900E51325E0FE0E0E90E740EEF090E7417403F00090E68AE4F00090E68BEEF00207DC
:200499001890E6A0E0FF4401F002071890E6BCE0FE7F00C3EE9401EF6480948040030207D8
:2004B90018EE2409F9870590E740EDF090E68AE4F090E68B7401F002071890E6BCE0FDFE6F
:2004D9007F00C3EE9401EF648094804003020718EE2409F990E6BAE0FFF702071890E6BA88
:2004F900E0F50802071890E740E508F090E68AE4F090E68B7401F002071890E6B8E0FFBF2A
:200519008002800DBF8102802DBF8202803E0205AAA201E43325E0FFA202E433FE420790C2
:20053900E740EFF090E741E4F090E68AF090E68B7402F002071890E740E4F090E741F090D5
:20055900E68AF090E68B7402F002071890E6BCE0FF53077E90E6BCE0FEC374809EE4334FE6
:2005790090096093FF3395E0FE74A12FFF74E63EFE8F828E83E0FF53070190E740EFF090D6
:20059900E741E4F090E68AF090E68B7402F002071890E6A0E0FF4401F002071890E6B8E075
:2005B900FF6008BF0202801B02071890E6BAE0FFBF0105C20102071890E6A0E0FF4401F05A
:2005D90002071890E6BAE0600302066190E6BCE0FF53077E90E6BCE0FEC374809EE4334F51
:2005F90090096093FF3395E0FE74A12FFF74E63EFE90E6BCE0FD53057E90E6BCE0FCC374AE
:20061900809CE4334D90096093FD3395E0FC74A12DFD74E63CFC8D828C83E0FD5305FE8F63
:20063900828E83EDF090E6BCE05480C423541FFF90E6BCE0FE740F5E90E6832FF090E683F0
:20065900E0FF4420F002071890E6A0E0FF4401F002071890E6B8E0FF6008BF0202802902FF
:2006790006FC90E6BAE0FFBF0108300005D20102071890E6BAE0FFBF020302071890E6A055
:20069900E0FF4401F002071890E6BCE0FF53077E90E6BCE0FEC374809EE4334F90096093CC
:2006B900FF3395E0FE74A12FFF74E63EFE90E6BCE0FD53057E90E6BCE0FCC374809CE43346
:2006D9004D90096093FD3395E0FC74A12DFD74E63CFC8D828C83E0FD4305018F828E83ED63
:2006F900F0801C90E6A0E0FF4401F0801290E6A0E0FF4401F0800890E6A0E0FF4401F0902D
:20071900E6A0E04480F022C021C0E0C0F0C082C083C007C006C005C004C003C002C001C0B2
:2007390000C0D075D000AF9174EF5FF59190E65D7401F0120284D0D0D000D001D002D0038D
:20075900D004D005D006D007D083D082D0F0D0E0D0213290E60174C0F00090E60B7403F06F
:200779000090E610E4F090E611F090E613F090E615F090E61474E0F090E61274A0F090E6CB
:20079900047480F00090E6047482F00090E6047484F00090E6047486F00090E6047488F0CC
:2007B9000090E6047480F00090E604E4F00090E6497482F00090E6497482F00090E64974F7
:2007D90082F00090E6487486F00090E6487486F00090E6487486F00090E618E4F00090E6BE
:2007F9001AE4F00090E6B57401F075A88075E80190E65C7401F022AF8874CF5FF58800AF09
:200819001690E698EFF0AE1590E699EEF0E4F515F51622AF82AD1574F82516FE90E6A5E05E
:20083900FC20E3F88D828E83EFF00515E4B515020516E51654FE6003120810E51545166035
:2008590019E58820E41474FFC39517FE74FF9518FD8D8C7F008E8A438810227E007FF090BA
:20087900E690E0FC7D0090E691E07A004205EA42047A007B00C3EA9DEB64808CF063F0805B
:2008990095F050608E828F83E0F9B961004027E92485402274E029F582C007C006C005C094
:2008B90004C003C00212082CD002D003D004D005D006D00780228E828F83E0F582C007C0B3
:2008D90006C005C004C003C00212082CD002D003D004D005D006D0070ABA00010B0EBE000E
:2008F900940F80910090E6497482F02290E680E04408F012076C90E680E04402F0E054F796
:20091900F0AF8E74F75FF58E758901AF8874CF5FF58890E6A3E0FF20E203120874E58830C7
:07093900E5F012081080EB4D
:2009600000010202030304040505454E005769657365724C61627320262066726565736FEC
:1A09800066742E6F726700465832206361736520636F6E7665727465720089
:0600A800E478FFF6D8FD2C
:200086007900E94400601B7A0090099A780075A000E493F2A308B8000205A0D9F4DAF2757E
:0200A600A0FFB9
:2000AE007800E84400600A790075A000E4F309D8FC7800E84400600C7900900000E4F0A352
:0400CE00D8FCD9FA87
:20004B00E58124FCC3C8C0E0C082E608467006E5824583601218E58296F58208E583964283
:1B006B008208E5F0964582D082C8D0E0C82275812112095CE58260030200466A
:1C09400020F71430F6148883A88220F507E6A88375830022E280F7E49322E022C6
:04095C00758200227E
:00000001FF
