:03000000020008F3
:0300610002000397
:050003001200FE80FE6A
:2000640090E6007412F090E60174C3F00000000090E6017453F00000000090E60B7403F0DC
:200084000000000090E61474E0F00000000090E6047480F00000000090E6047482F00000D0
:2000A400000090E6047484F00000000090E6047486F00000000090E6047488F00000000010
:2000C40090E604E4F00000000090E61A7409F00000000090E670E4F00000000090E6097424
:1F00E40038F00000000090E6247402F00000000090E625E4F0000000002212006480FE50
:06003700E478FFF6D8FD9D
:200015007900E94400601B7A00900107780075A000E493F2A308B8000205A0D9F4DAF2758A
:02003500A0FF2A
:20003D007800E84400600A790075A000E4F309D8FC7800E84400600C7900900000E4F0A3C3
:04005D00D8FCD9FAF8
:0D000800758107120103E582600302000309
:0401030075820022DF
:00000001FF
