:03000000020008F3
:0C006100750810750901750A8002000383
:0500030012010780FE60
:20006D0090E6007412F090E60174C3F00000000090E6017443F00000000090E60B7403F0E3
:20008D000000000090E61474E0F00000000090E6047480F00000000090E6047482F00000C7
:2000AD00000090E6047484F00000000090E6047486F00000000090E6047488F00000000007
:2000CD0090E604E4F00000000090E61A7409F00000000090E670E4F00000000090E609741B
:1F00ED0038F00000000090E6247402F00000000090E625E4F0000000002212006D80FE3E
:0F011000465745455052763030302E3030310052
:06003700E478FFF6D8FD9D
:200015007900E94400601B7A0090011F780075A000E493F2A308B8000205A0D9F4DAF27572
:02003500A0FF2A
:20003D007800E84400600A790075A000E4F309D8FC7800E84400600C7900900000E4F0A3C3
:04005D00D8FCD9FAF8
:0D00080075810A12010CE5826003020003FD
:04010C0075820022D6
:00000001FF
