:03000000020008F3
:030061007508001F
:0300640002000394
:0500030012016D80FEFA
:0E00670090E6007410F090E60174C0F0000006
:0D007500000090E60B7403F0000000009006
:0E008200E61474E2F00000000090E6047480C2
:0E009000F00000000090E6047482F000000012
:0E009E000090E6047484F00000000090E60478
:0E00AC007486F00000000090E6047488F000F6
:0D00BA0000000090E604E4F00000000022C9
:0A00C7007E007FF87B9D7C017D80A8
:0700D1008E018F027509008A
:0C00D8008B828C838DF012017DF50A6094
:0800E40016A80A0BBB00010C79
:0C00EC0089828A83E8F0A3A982AA830518
:0300F8000980DD9F
:0E00FB0089828A837428F0740129FEE43AFF9A
:0A010900E50904FD75F064E50884C3
:0E01130024308E828F83F0A3AE82AF830D75F1
:0C012100F064E50884E5F075F00A842421
:0E012D00308E828F83F0A3AE82AF830D75F00B
:0C013B000AE50884ACF074302CFC8E82C5
:0E0147008F83F0A3AE82AF830D8E828F837400
:0C01550029F00D05080000000090E6985D
:0C016100E4F00000000090E699EDF022B0
:03016D0012006716
:0D01700090E6A5E0FF20E3F81200C780F341
:0E019D0048656C6C6F20776F726C642120597E
:0E01AB006F7572204658322069732074616CA3
:0E01B9006B696E6720746F20796F7520766910
:0E01C700612074686520555342206C696E6596
:0301D5002E2000D9
:06003700E478FFF6D8FD9D
:080015007900E94400601B7A48
:05001D00009001D878FD
:030022000075A0C6
:0A00250000E493F2A308B8000205FE
:08002F00A0D9F4DAF275A0FF7C
:08003D007800E84400600A7934
:030045000075A0A3
:0600480000E4F309D8FCFE
:08004E007800E84400600C7921
:0B00560000900000E4F0A3D8FCD9FAF1
:0300080075810AF5
:0A000B00120199E582600302000370
:0E017D0020F71430F6148883A88220F507E6D8
:06018B00A8837583002229
:03019100E280F712
:03019400E49322CF
:02019700E02264
:040199007582002249
:00000001FF
