:03000000020008F3
:0300610002000397
:0500030012006480FE04
:0A0064007DAF7E007F807B007C10E2
:0E006E008D828E838FF012008FFA60130DBD0D
:03007C0000010E72
:0E007F000A8B828C83EAF0A3AB82AC8380E113
:02008D0080FEF3
:0E00AF0047646B6B6E2B1F766E716B63201FA8
:0E00BD00536768721F68721F786E74711F455A
:0A00CB0057311F616E6071632D0054
:06003700E478FFF6D8FD9D
:080015007900E94400601B7A48
:05001D00009000D57801
:030022000075A0C6
:0A00250000E493F2A308B8000205FE
:08002F00A0D9F4DAF275A0FF7C
:08003D007800E84400600A7934
:030045000075A0A3
:0600480000E4F309D8FCFE
:08004E007800E84400600C7921
:0B00560000900000E4F0A3D8FCD9FAF1
:03000800758107F8
:0A000B001200ABE58260030200035F
:0E008F0020F71430F6148883A88220F507E6C7
:06009D00A8837583002218
:0300A300E280F701
:0300A600E49322BE
:0200A900E02253
:0400AB007582002238
:00000001FF
