:04000000020079324F
:01000B0032C2
:0100130032BA
:01001B0032B2
:0100230032AA
:01002B0032A2
:01003300329A
:01003B003292
:0300430002072889
:2000D200750A11750B09750C80750D14750E09750F80751021751109751280E4F515F51699
:2000F20075174075189CC200C201C202903D007412F0903D017401F0903D02E4F0A374027E
:20011200F0903D04E4F0903D05F0903D06F0903D077440F0903D0874B4F0A37404F0903D76
:200132000A7413F0A37486F0903D0CE4F0A37401F0903D0E7401F0903D0F7402F0903D108B
:20015200E4F0903D117401F0903D20740AF0903D217406F0903D22E4F0A37402F0903D2406
:20017200E4F0903D25F0903D26F0903D277440F0903D287401F0903D307409F0903D317406
:2001920002F0903D327420F0A3E4F0903D347401F0903D357401F0903D36E4F0903D377445
:2001B200A0F0903D38741EF0903D397409F0903D3A7404F0903D3BE4F0903D3CF0903D3D55
:2001D2007402F0903D3E74FFF0903D3F74FFF0903D4074FFF0903D41E4F0903D427407F0FE
:2001F200903D437405F0903D447481F0903D457402F0903D46E4F0A37402F0903D48E4F02D
:20021200903D497407F0903D4A7405F0903D4B7401F0903D4C7402F0903D4DE4F0A37402C8
:09023200F0903D4FE4F00200469B
:050046001208BE80FE5F
:20023B00AD82AE83AFF07B007C008D828E838FF01208E7F8A31208E7F9A31208E7FAE4C036
:20025B00E0E4C0E0E4C0E0888289838AF012004B158115811581600E74032DFDE43EFE0BB2
:20027B00BB00C70C80C48B828C832290E6B8E0FF530760BF0002800302071890E6B9E0FF19
:20029B0024F4500302070EEF2F2F9002A97302051B0205BD02070E02067402070E02070E1F
:2002BB000202CD02070E0205070204FE0204AD0204DB90E6BBE0FFBF01028019BF020280E7
:2002DB0046BF03030203BCBF06028022BF070302036F0204A27E007F3D8F0690E6B3EEF013
:2002FB007E007F3D7F0090E6B4EEF00207207E207F3D8F0690E6B3EEF07E207F3D7F00909A
:20031B00E6B4EEF0020720903D317402F090E680E0FF30E714903D467440F0A3E4F0903DC2
:20033B004D7440F0A3E4F08012903D467440F0A3E4F0903D4D7440F0A3E4F07E307F3D8F4C
:20035B000690E6B3EEF07E307F3D7F0090E6B4EEF0020720903D317407F090E680E0FF30ED
:20037B00E714903D467440F0A3E4F0903D4D7440F0A3E4F08012903D467440F0A3E4F090B4
:20039B003D4D7440F0A3E4F07E307F3D8F0690E6B3EEF07E307F3D7F0090E6B4EEF002079D
:2003BB002090E6BAE0FF90000A75F040C00712023BAD82AE83D0077C00C3EF9DEC64808E3E
:2003DB00F063F08095F0400B90E6A0E0FF4401F0020720E4F513F514C3E513941FE514645C
:2003FB00809480507B90E6BAE075F003A4240AF987030987040987051919E5132BFBE51444
:20041B003CFC8B828C838DF01208E76053E51325E0FD24022440FBE434E7FC90E6BAE0753D
:20043B00F003A4240AF987020987060987071919E5132AFAE5143EFE8A828E838FF01208F4
:20045B00E7FA8B828C83F074032D2440F582E434E7F583E4F00513E4B5130205140203F3F3
:20047B00E51325E0FE0E0E90E740EEF090E7417403F00000000090E68AE4F0000000009032
:20049B00E68BEEF002072090E6A0E0FF4401F002072090E6BCE0FE7F00C3EE9401EF6480CE
:2004BB0094804003020720EE2409F9870590E740EDF090E68AE4F090E68B7401F00207200A
:2004DB0090E6BCE0FDFE7F00C3EE9401EF648094804003020720EE2409F990E6BAE0FFF7C2
:2004FB0002072090E6BAE0F50802072090E740E508F090E68AE4F090E68B7401F00207208B
:20051B0090E6B8E0FFBF8002800DBF8102802DBF8202803E0205B2A201E43325E0FFA202DA
:20053B00E433FE420790E740EFF090E741E4F090E68AF090E68B7402F002072090E740E405
:20055B00F090E741F090E68AF090E68B7402F002072090E6BCE0FF53077E90E6BCE0FEC3AC
:20057B0074809EE4334F90090793FF3395E0FE74A12FFF74E63EFE8F828E83E0FF5307015B
:20059B0090E740EFF090E741E4F090E68AF090E68B7402F002072090E6A0E0FF4401F00272
:2005BB00072090E6B8E0FF6008BF0202801B02072090E6BAE0FFBF0105C20102072090E6C7
:2005DB00A0E0FF4401F002072090E6BAE0600302066990E6BCE0FF53077E90E6BCE0FEC383
:2005FB0074809EE4334F90090793FF3395E0FE74A12FFF74E63EFE90E6BCE0FD53057E90C2
:20061B00E6BCE0FCC374809CE4334D90090793FD3395E0FC74A12DFD74E63CFC8D828C83C7
:20063B00E0FD5305FE8F828E83EDF090E6BCE05480C423541FFF90E6BCE0FE740F5E90E6C7
:20065B00832FF090E683E0FF4420F002072090E6A0E0FF4401F002072090E6B8E0FF6008C0
:20067B00BF0202802902070490E6BAE0FFBF0108300005D20102072090E6BAE0FFBF02030B
:20069B0002072090E6A0E0FF4401F002072090E6BCE0FF53077E90E6BCE0FEC374809EE491
:2006BB00334F90090793FF3395E0FE74A12FFF74E63EFE90E6BCE0FD53057E90E6BCE0FCF9
:2006DB00C374809CE4334D90090793FD3395E0FC74A12DFD74E63CFC8D828C83E0FD430560
:2006FB00018F828E83EDF0801C90E6A0E0FF4401F0801290E6A0E0FF4401F0800890E6A0BF
:20071B00E0FF4401F090E6A0E04480F022C021C0E0C0F0C082C083C007C006C005C004C052
:20073B0003C002C001C000C0D075D000AF9174EF5FF59190E65D7401F0120286D0D0D000B9
:20075B00D001D002D003D004D005D006D007D083D082D0F0D0E0D021320000000090E60BF9
:20077B007403F00000000090E61074A0F090E61174A0F090E612E4F090E613F090E614F093
:20079B0090E615F00000000090E68D74FFF075A88075E80190E65C7401F022AF8874CF5F30
:2007BB00F58890E7C07431F090E7C17401F000000000AF1590E68F74022FF0E4F515F516E1
:2007DB0022AF82E51524C0FDE51634E7FE74022DFDE43EFE90E6A2E0FC20E1F88D828E83EF
:2007FB00EFF00515E4B515020516C3E515943EE516940040031207B6E51545166019E588AF
:20081B0020E41474FFC39517FE74FF9518FD8D8C7F008E8A4388102290E68DE0FE7F007427
:20083B00012480FCE434E7FD1EBEFF011F7A007B00C3EA9EEB9F50608C828D83E0F9B9617A
:20085B00004027E92485402274E029F582C007C006C005C004C003C0021207DCD002D003F9
:20087B00D004D005D006D00780228C828D83E0F582C007C006C005C004C003C0021207DC60
:20089B00D002D003D004D005D006D0070ABA00010B0CBC009C0D809990E68D74FFF0000082
:2008BB00000022120774AF8E74F75FF58E758901AF8874CF5FF58890E6A1E0FF20E1031283
:0C08DB000833E58830E5F01207B680EB2A
:2009070000010202030304040505454E0066726565736F66742E6F72670046583220636198
:0D092700736520636F6E76657274657200F3
:0600A800E478FFF6D8FD2C
:200086007900E94400601B7A00900934780075A000E493F2A308B8000205A0D9F4DAF275E4
:0200A600A0FFB9
:2000AE007800E84400600A790075A000E4F309D8FC7800E84400600C7900900000E4F0A352
:0400CE00D8FCD9FA87
:20004B00E58124FCC3C8C0E0C082E608467006E5824583601218E58296F58208E583964283
:1B006B008208E5F0964582D082C8D0E0C822758121120903E5826003020046C3
:1C08E70020F71430F6148883A88220F507E6A88375830022E280F7E49322E02220
:0409030075820022D7
:00000001FF
