:03000000020008F3
:0300610002000397
:050003001200A680FEC2
:2000640090E6007412F00000000090E601E4F00000000090E60B7403F00000000090E609DE
:20008400E4F00000000090E670E4F00000000075B20075B30075B40075B50075B3FF75B5DB
:2000A400FF221200647E007F00C3EE9403EF940050217C007D00C3EC94FFED94FF500D75DF
:2000C40090FF75B0FF0CBC00ED0D80EA0EBE00D90F80D67E007F00C3EE9403EF940050C556
:2000E4007C007D00C3EC94FFED94FF500D75900075B0000CBC00ED0D80EA0EBE00D90F805A
:01010400D624
:06003700E478FFF6D8FD9D
:200015007900E94400601B7A00900109780075A000E493F2A308B8000205A0D9F4DAF27588
:02003500A0FF2A
:20003D007800E84400600A790075A000E4F309D8FC7800E84400600C7900900000E4F0A3C3
:04005D00D8FCD9FAF8
:0D000800758107120105E582600302000307
:0401050075820022DD
:00000001FF
