:03000000020008F3
:0400610075226A7525
:03006500230F75F1
:06006800248075250075DF
:06006E0026127527007543
:060074002810752900753B
:06007A002A14752B00752D
:060080002C11752D4075E6
:020086002E1139
:0300880002000370
:0500030012053480FE2F
:0E008B00AE82AF8390E6787480F090E67974D0
:02009900A2F0D3
:0E009B0090E678E0FD30E0F890E678E0FD2099
:0600A900E1047582012252
:0500AF0090E679EFF07E
:0E00B40090E678E0FD30E0F890E678E0FD2080
:0600C200E1047582022238
:0700C8007F0090E679EEF0E5
:0E00CF0090E678E0FF30E0F890E678E0FF2061
:0600DD00E104758203221C
:0600E30090E67974FFF0C5
:0E00E90090E678E0FF30E0F890E6787440F0A2
:0900F700E0FF20E10475820422FF
:0C01000090E6787480F090E67974A2F02C
:0E010C0090E678E0FF30E0F890E678E0FF3013
:06011A00E1E475824022C1
:0E012000AE82AF8390E6787480F090E679743A
:02012E00A2F03D
:0E01300090E678E0FD30E0F890E678E0FD2003
:06013E00E10475820122BC
:0501440090E679EFF0E8
:0E01490090E678E0FD30E0F890E678E0FD20EA
:06015700E10475820222A2
:07015D007F0090E679EEF04F
:0E01640090E678E0FF30E0F890E678E0FF20CB
:06017200E1047582032286
:0601780090E679E510F0AD
:0E017E0090E678E0FF30E0F890E6787440F00C
:09018C00E0FF20E1047582042269
:0C01950090E6787480F090E67974A2F097
:0E01A10090E678E0FF30E0F890E678E0FF307E
:0601AF00E1E4758240222C
:0E01B500AE82AF8390E6787480F090E67974A5
:0201C300A2F0A8
:0E01C50090E678E0FD30E0F890E678E0FD206E
:0601D300E1047582012227
:0501D90090E679EFF053
:0E01DE0090E678E0FD30E0F890E678E0FD2055
:0601EC00E104758202220D
:0701F2007F0090E679EEF0BA
:0E01F90090E678E0FF30E0F890E678E0FF2036
:06020700E10475820322F0
:0C020D0090E6787480F090E67974A3F01D
:0E02190090E678E0FF30E0F890E678E0FF2015
:06022700E10475820522CE
:05022D00AD10AE11AFA1
:0C0232001290E679E0FC8D828E838FF044
:03023E0012082D76
:0E02410090E678E0FC30E0F890E678E0FC20F3
:06024F00E10475820622A5
:0E02550090E678E0FC30E0F890E678E0FC20DF
:06026300E1047582072290
:0E02690090E679E0FC8D828E838FF012082DD6
:0E02770090E678E0FC30E0F890E678E0FC20BD
:06028500E104758208226D
:0E028B0074012DFAE43EFB8F0490E679E0F951
:090299008A828B838CF012082D7F
:0E02A20090E678E0FC30E0F890E678E0FC2092
:0602B000E1047582082242
:0602B6007513027514002F
:0A02BC00C3E513941FE51464809459
:0A02C600805036E5132DF8E5143ED4
:0E02D000F98F0290E679E0FC888289838AF03B
:0302DE0012082DD6
:0E02E10090E678E0FC30E0F890E678E0FC2053
:0602EF00E1047582092202
:0702F5000513E4B513C10578
:0302FC001480BDAE
:0E02FF0090E6787420F0741F2DFDE43EFE9012
:0D030D00E679E0FC8D828E838FF012082DC2
:0E031A0090E678E0FC30E0F890E679E0FC8DAB
:08032800828E838FF012082D74
:0E03300090E678E0FF30E0F890E678E0FF20FD
:06033E00E10475820A22B1
:0603440090E6787440F021
:0E034A0090E678E0FF30E0F890E678E0FF20E3
:06035800E10475820B2296
:04035E007582402242
:0B03620090E67A7401F0007E007F003E
:0D036D00C3EE9480EF648094805013EE2561
:0A037A002DF582EF352EF583E4F037
:070384000EBE00E50F80E250
:0A038B0074232525FEE43526FF85C6
:030395002D1085A3
:030398002E1175AE
:0C039B001200900400C007C0061201B55B
:0E03A700AD82D006D0078E828F83EDF0758276
:0203B500002224
:0803B70085822F85833085F05B
:0C03BF003190E67A7401F0007B007C00B5
:0D03CB00C3EB9480EC648094805013EB250C
:0A03D8002DF582EC352EF583E4F0DC
:0703E2000BBB00E50C80E2FB
:0A03E900740E252FFAE43530FBAC4A
:0C03F300318A828B838CF0120F1BFAA35E
:0B03FF00120F1BFB740C252FF8E435D7
:0A040A0030F9AC31888289838CF050
:0C041400120F1BF8A3120F1BF9740A252D
:070420002FFCE43530FEAFB4
:0B042700318C828E838FF0120F1BF5CA
:0604320032A3120F1BF5BE
:08043800337408252FFDE435A3
:0A04400030FEAF318D828E838FF005
:07044A00120F1BF534A31291
:050451000F1BF535ACA6
:0A0456002DAE2E7F00C002C003C0CF
:0804600000C001C032C033C02E
:0404680034C035C0A7
:04046C002FC030C0AD
:0604700031743BC0E07492
:0C0476000FC0E07480C0E0C004C006C0ED
:0E048200071208F3E58124EFF5817E007F006C
:0E049000C3EE9420EF64809480503E74022EE0
:0A049E00FCE43FFDEC2525FCED35E4
:0C04A80026FD8E0274042FFB8A828B83D9
:0C04B400751000C007C006C005C004128F
:0E04C0000120AB82D004D005D006D0078C827C
:0B04CE008D83EBF00EBE00BA0F80B76C
:0404D9007E007F0022
:0E04DD00C3EE9420EF64809480504874022E89
:0A04EB00FCE43FFDEC2525FCED3597
:0A04F50026FD8E0274042FFBEE2595
:0A04FF002DF582EF352EF583E0F5B0
:0C050900108A828B83C007C006C005C0AA
:0E05150004120120AB82D004D005D006D0071E
:0D0523008C828D83EBF00EBE00B00F80AD1A
:0405300075820022AE
:070534007525007526127504
:03053B00105475E4
:03053E00110F7525
:09054100128090003675F04012A2
:04054A00076E7510B3
:03054E00597511CB
:050551000F75128090FF
:0A055600003675F04012076EE4F560
:040560003EF53F75B0
:060564004001E4F541F541
:04056A0042F543759E
:09056E0044017545007EC87F00C0
:050577001EBEFF011F84
:0B057C00EE4F70F71203627E007F005C
:0D058700C3EE9420EF648094805020EE2598
:0805940027FCEF3528FDEE25E0
:0A059C002DF582EF352EF583E0FB0C
:0C05A6008C828D83F00EBE00D80F80D533
:0305B2001205BA75
:0505B5001205D180FBDE
:0E05BA0090E61074A0F090E61174A0F000908E
:0905C800E68D74FFF0758200223B
:0B05D10090E6A1E0FF30E10302076AA2
:0A05DC0090E68DE0F54674FFB54689
:0405E6000302076A9B
:0405EA007DC07EE76B
:0C05EE0090E6A2E0FC20E1F87B007C001D
:0D05FA00C3EB9420EC648094805020EB252E
:0A0607002BF9EC352CFAEB2480F5FA
:0E06110082EC34E7F583E0F889828A83F00BEF
:06061F00BB00D80C80D5E1
:080625008D038E0479007A00B8
:0C062D00A8467F00C3E998EA64808FF0C3
:0C06390063F08095F0501DE9252BF58240
:0C064500EA352CF583E0FF8B828C83F0FB
:0C065100A3AB82AC8309B900D30A80D0AF
:0A065D00852582852683745AF00576
:0606670025E4B5250205A3
:01066D002666
:06066E0090E68FE546F066
:0D06740090E6A2E0FF20E1F87DC07EE7AB3C
:060681002BAC2C7F00757C
:03068700105E758D
:03068A00110F75D8
:06068D00128075130575D3
:0C06930014008B828C838FF0C006C00521
:0E069F001207AEE5828583F0D005D00645F047
:0806AD0070408D048E07FAFB7A
:0A06B500EA252DF582EB352EF583C2
:0E06BF00E0F960128C828F83E9F0A3AC82AF69
:0806CD00830ABA00E30B80E090
:0E06D5008C828F83E4F074012CFDE43FFE74F0
:0C06E300012AFCE43BFF90E68FECF000E5
:0706EF00A92BAA2C7B00756A
:0306F60010647518
:0306F900110F7569
:0606FC0012807513057564
:0C070200140089828A838BF0C006C005B9
:0E070E001207AEE5828583F0D005D00645F0D7
:06071C007046F547F548A8
:06072200E5472522F8E581
:05072800483523F9AB88
:0C072D0024888289838BF0120F1BFB6074
:0D073900158D828E83EBF0A3AD82AE83059B
:0607460047E4B547D705AA
:03074C004880D30F
:0C074F008D828E83E4F074012547FCE4E9
:09075B003548FF90E68FECF00038
:0607640090E68D74FFF029
:04076A007582002272
:0E0F3B004857257376253033782E25303378CD
:0B0F490073253034782E2530347800FA
:050F5400544553540058
:050F59004144435F006C
:060F5E00676574485700AE
:060F6400676574465700AA
:0E0F6A00465745455052763030302E303031EB
:010F78000078
:08076E0085821385831485F0D8
:0407760015AA10AB05
:04077A0011AC12A804
:04077E0013A914AFF8
:010782001561
:0E0783008A828B838CF0120F1BFEA3AA82AB1E
:0E07910083888289838FF0EE12082DA3A88240
:0A079F00A983EE70DF851382851434
:0507A900838515F0221C
:0A07AE00AD82AE83AFF0E5134514F1
:0607B80070049000002215
:0507BE00AA10AB11AC14
:0407C30012A813A9BC
:0107C700141D
:0507C80018B8FF011943
:0E07CD00E84960368D828E838FF0120F1BF587
:0C07DB00156029C000C0018A828B838C4D
:0A07E700F0120F1BF9B51502800691
:0607F100D001D0008010D1
:0907F700D001D0000DBD00010E7F
:070800000ABA00C40B80C11D
:0E0807008D828E838FF0120F1BFD3395E0FF64
:0E0815008A828B838CF0120F1BFA3395E0FE63
:0A082300EDC39AF582EF9EF58322E3
:06003700E478FFF6D8FD9D
:080015007900E94400601B7A48
:05001D0000900F847843
:030022000075A0C6
:0A00250000E493F2A308B8000205FE
:08002F00A0D9F4DAF275A0FF7C
:0E082D0020F71030F6118883A88220F507F618
:05083B00A88375830095
:010840002295
:03084100F280F74B
:02084400F022A0
:08003D007800E84400600A7934
:030045000075A0A3
:0600480000E4F309D8FCFE
:08004E007800E84400600C7921
:0B00560000900000E4F0A3D8FCD9FAF1
:0A084600C00F85810FC082058105F7
:0A085000810581E50F24FBF8A90FD4
:0D085A000909E6F70809E6F70809E6F7A81E
:0C0867000F080886820886830886F012BD
:0A0873000F1BFAA3120F1BFBA312C8
:0D087D000F1BFF74012AFCE43BFD8F06A851
:0C088A000F080886820886830886F0ECC0
:0B08960012082DA3ED12082DA3EE1296
:0C08A100082D8A828B838FF0A80F08E6D8
:0708AD0012082D850F81D018
:0208B4000F2211
:0808B60085820C85830D85F09D
:0308BE000E75555F
:0508C1000C75560075E6
:0408C600574085080A
:0308CA0058850945
:0308CD0059850A40
:0308D0005A850B3B
:0508D3005B90084612D5
:0908D80009EBAE82AF83AB0CAC5E
:0A08E1000DAD0E8B828C838DF0E4C8
:0808EB0012082D8E828F83227A
:0608F300C00F85810FE536
:0708F9000F24F8FF8F5BE5FF
:070900000F24FBFF8F55756A
:060907005600755740E5A3
:08090D000F24F8F88658088653
:050915005908865A900C
:0A091A0008461209EBAE82AF83E538
:0C0924000F24FBF88603088604088605F3
:0E0930008B828C838DF0E412082D8E828F83D3
:03093E00D00F22B5
:05094100C04BC04CC0DA
:060946004D7454C0E07482
:06094C0009C0E0C049C033
:020952004A2237
:0A0954001581158115810553E4B5E6
:04095E0053020554E7
:010962002272
:0E096300AF8274302FFF24C6500A74072FFF96
:06097100300003430720E3
:050977008F820209411E
:0E097C00E582FFC4540FF582C007120963D054
:09098A0007740F5FF58202096396
:05099300858210854E75
:0309980011854F77
:03099B0012855072
:03099E001385516D
:0409A10014AA5275CD
:0209A50015201B
:0C09A700EA2AFAE514235401FF8A0642F4
:0809B300068E02E5112511F585
:0509BB0011E51233F507
:0509C00012E51333F500
:0509C50013E51433F5F9
:0A09CA0014C3EA95104008EAC39533
:0509D40010FA431101BF
:0509D900D515CB8511CE
:0309DE004E851231
:0309E1004F85132C
:0309E40050851427
:0409E700518A5222BD
:0709EB0085824985834A85DE
:0309F200554B85DD
:0309F500564C85D8
:0409F800574DE4F57E
:0309FC0053F5545C
:0509FF00AD58AE59AF38
:0C0A04005A8D828E838FF0120F1BFC7441
:090A1000012DF558E43EF5598F63
:080A19005AECFF7003020EFC11
:050A2100BF2502800367
:030A2600020EF4C9
:050A2900C201C202C27F
:040A2E0003C204C239
:040A320005C206C231
:040A360007C2087576
:080A3A005C00755D007CFFAA61
:040A420058AB59AEA6
:010A46005A55
:0E0A47008A828B838EF0120F1BFFA3AA82AB54
:060A5500838A588B598EC4
:0B0A5B005ABF25078F821209418099C5
:090A66008F5F74D0255F5026E576
:0A0A6F005F24C64020BCFF12E55DC5
:0C0A790075F00AA42F24D0FDF55D70C2BA
:040A8500D20280BE5B
:0B0A8900EC75F00AA42F24D0FC80B311
:0A0A9400BF2E07BCFFAD7C0080A957
:050A9E008F05BD6100A1
:0C0AA300400CED248540075307DFD20013
:020AAF008002C3
:020AB100C20081
:050AB300BF2002806D70
:050AB800BF2B0280636A
:050ABD00BF2D0280596D
:050AC200BF4202806349
:050AC700BF430280683E
:060ACC00BF4403020C957B
:060AD200BF4603020CAB5D
:060AD800BF4803020A47BB
:060ADE00BF4903020C9564
:060AE400BF4A03020A47AD
:050AEA00BF4C0280403A
:060AEF00BF4F03020C9C46
:060AF500BF5003020C2AB1
:050AFB00BF5302805C06
:060B0000BF5403020A4786
:060B0600BF5503020CA123
:060B0C00BF5803020CA615
:060B1200BF5A03020A476E
:030B1800020CAF1D
:050B1B00D201020A47AF
:050B2000D203020A47A8
:050B2500D204020A47A2
:050B2A00D206020A479B
:050B2F00D207020A4795
:080B340030060CE55B14FE8E97
:070B3C005B8E0187078011A9
:0A0B4300E55B24FEFE8E5B8E018749
:070B4D0005098706198D0759
:080B54008F82120941020CB866
:0A0B5C00E55B24FDFE8E5B8E018731
:0C0B66000309870509870619198B4E8DBD
:0A0B72004F8E508B828D838EF0C0F1
:0E0B7C0004120F03AD82AE83D004BCFF028DC5
:010B8A000466
:0A0B8B0020012CC3ED955D5026E516
:060B95005DC39DF55DAE9D
:010B9B005DFC
:0C0B9C008E031E8E5DEB6014758220C07D
:0E0BA80006C005C004120941D004D005D006D5
:020BB60080E4D9
:020BB8008E5D50
:020BBA008C06A7
:070BBC00854E82854F838501
:0C0BC30050F0120F1BFCFF60308E041E6F
:0E0BCF00C3E464808CF063F08095F050208FBA
:0D0BDD0082C006C005120941D005D006AA4D
:040BEA004EAB4FAC13
:060BEE00500ABA00010BE1
:050BF4008A4E8B4F8CBE
:030BF9005080C069
:060BFC00200103020CB809
:090C0200C3ED955D4003020CB83E
:070C0B00E55DC39DF55DAE40
:010C12005D84
:0B0C13008E041E8E5DEC7003020CB618
:0C0C1E00758220C006120941D00680E952
:0A0C2A00E55B24FDFC8C5B8C018768
:0C0C34000209870309870419198A4E8BF6
:040C40004F8C50ACD9
:040C440050BC800020
:060C480040047F4380140C
:030C4E00BC600087
:060C510040047F50800BFF
:030C5700BC40009E
:060C5A0040047F49800206
:020C60007F58BB
:0E0C62008F82C00712094175823A120941754E
:0E0C70008230120941758278120941D007BF07
:040C7E004902800B9C
:050C8200BF50028006D6
:060C8700854F8212097C7A
:080C8D00854E8212097C8023D0
:070C9500D205755C0A801C0A
:050C9C00755C088017E3
:050CA100755C0A8012E1
:050CA600755C10800DDB
:040CAB00D2088009E2
:070CAF008F8212094180024F
:020CB6008E5D51
:090CB80030085CE55B24FCFE8EB3
:0C0CC1005B8E0187020987030987040984
:0A0CCD0087061919198A4E8B4F8C07
:040CD700508E517575
:030CDB004E7975DA
:030CDE004F0F7540
:020CE100508041
:040CE300854E608555
:030CE7004F6185D5
:050CEA005062740125B9
:070CEF0060FAE43561FCAE80
:040CF600628A4E8C34
:040CFA004F8E508544
:060CFE0060828561838520
:0A0D040062F0120F1BFEFF700302E5
:020D0E0009FFDB
:070D10008F8212094180CC23
:070D1700E55C70030209FF17
:040D1E00755E1B30B3
:070D2200062DE55B14FC8CBB
:0C0D29005B8C01E7FA3395E0FBFCFE8ACE
:040D35004E8B4F8C06
:040D3900508E512067
:0A0D3D000566AA4E7B007C007E00D4
:050D47008A4E8B4F8C69
:050D4C00508E5180549F
:090D5100300721E55B24FCFE8E55
:0C0D5A005B8E01870209870309870409EA
:0A0D660087061919198A4E8B4F8C6D
:050D7000508E5180309F
:0A0D7500E55B24FEFE8E5B8E018715
:0C0D7F000409870619EE3395E0FBFA8C9E
:040D8B004E8E4F8BAE
:040D8F00508A512015
:050D93000510AA4EABA3
:080D98004F7C007E008A4E8BA7
:040DA0004F8C508E96
:010DA40051FD
:060DA500300525AA4EAB4B
:040DAB004FAC50E514
:0C0DAF0051FE30E717C3E49AFAE49BFB06
:0A0DBB00E49CFCE49EFE8A4E8B4F80
:060DC5008C508E518002EB
:020DCB00C2055F
:060DCD00D209A95E7E00C0
:0A0DD300755200855C82C006C00165
:0B0DDD00120993D001D00620090DE59B
:0A0DE80052C4FCE7FB4CF719895ECA
:020DF20080027D
:020DF400A75204
:080DF6000E8E05B209E54E4521
:040DFE004F455045C8
:080E02005170CE895E8E05E5FA
:060E0A005D7003755D013F
:0A0E1000200224200121ED04FEACB5
:010E1A005D7A
:0E0E1B00C3EE9C5015758220C006C005C004B1
:0C0E2900120941D004D005D0061C80E660
:020E35008C5DD2
:0C0E370030050E75822DC005120941D057
:050E430005155D802390
:0C0E4800ED602030030E75822BC00512F7
:080E54000941D005155D800F76
:0C0E5C0030040C758220C005120941D042
:030E680005155D10
:050E6B00200124AE5D32
:0B0E70008E041E8E5DC3ED9C502B30E5
:060E7B0002047C3080023D
:020E81007C20D3
:0E0E83008C82C006C005120941D005D0068041
:010E9100DE82
:0A0E9200C3ED955D5008E55DC39DBA
:040E9C00F55D800779
:050EA000755D008002F9
:020EA5008E5D60
:040EA700A95E8D06AD
:0A0EAB008E051EED6026B209200935
:0B0EB5000A09E7C4540FFD8D528007AE
:070EC0008705740F5DF55278
:0C0EC700855282C006C001120963D001F0
:040ED300D00680D4F1
:060ED7002001030209FFE7
:020EDD00AE5D08
:090EDF008E051EED70030209FFEF
:0C0EE800758220C006120941D00680EB84
:080EF4008F821209410209FF7F
:070EFC008553828554832217
:0B0F79003C4E4F20464C4F41543E00C0
:040F0300AA82AB8390
:080F0700120F1B6003A380F828
:0C0F0F00C3E5829AF582E5839BF58322FE
:030008007581629D
:0A000B00120F37E5826003020003C4
:0E0F1B0020F71430F6148883A88220F507E62C
:060F2900A883758300227D
:030F2F00E280F766
:030F3200E4932223
:020F3500E022B8
:040F3700758200229D
:00000001FF
