:03000000020008F3
:0300610002000397
:0500030012010780FE60
:2000640090E600740AF090E6017443F00000000090E6017453F00000000090E60174C3F0AE
:200084000000000090E60B7403F00000000090E61474E0F00000000090E6047480F0000048
:2000A400000090E6047482F00000000090E6047484F00000000090E6047486F00000000016
:2000C40090E6047488F00000000090E604E4F00000000090E61A740DF00000000090E67081
:2000E400E4F00000000090E609E4F00000000090E6247402F00000000090E625E4F0000066
:0801040000002212006480FEDD
:06003700E478FFF6D8FD9D
:200015007900E94400601B7A00900110780075A000E493F2A308B8000205A0D9F4DAF27581
:02003500A0FF2A
:20003D007800E84400600A790075A000E4F309D8FC7800E84400600C7900900000E4F0A3C3
:04005D00D8FCD9FAF8
:0D00080075810712010CE582600302000300
:04010C0075820022D6
:00000001FF
