:03000000020008F3
:0300610002000397
:0500030012014E80FE19
:2000640090E6007412F090E60174C3F00000000090E6017453F00000000090E6017443F0A6
:200084000000000090E60B7403F00000000090E61574E0F00000000090E6047480F0000047
:2000A400000090E6047482F00000000090E6047484F00000000090E6047486F00000000016
:2000C40090E6047488F00000000090E604E4F00000000090E61B740DF00000000090E67080
:2000E400E4F00000000090E609E4F00000000090E6267402F00000000090E627E4F0000062
:2001040000007E007FF08E048F05740F2D400E8E828F8374C0F0A3AE82AF8380E97E007F19
:20012400F07C007D108C028D03C3EB6480949050188E828F83E0FBA3AE82AF838C828D8366
:0F014400EBF0A3AC82AD8380DC2212006480FE5E
:06003700E478FFF6D8FD9D
:200015007900E94400601B7A00900157780075A000E493F2A308B8000205A0D9F4DAF2753A
:02003500A0FF2A
:20003D007800E84400600A790075A000E4F309D8FC7800E84400600C7900900000E4F0A3C3
:04005D00D8FCD9FAF8
:0D000800758107120153E5826003020003B9
:04015300758200228F
:00000001FF
