:03000000020008F3
:0300610002000397
:050003001200CE80FE9A
:0E00640090E6007412F090E60174C3F0000004
:0D007200000090E6017453F00000000090C3
:0E007F00E6017443F00000000090E60B7403ED
:0E008D00F00000000090E6047480F000000017
:0E009B000090E6047482F00000000090E6047D
:0E00A9007484F00000000090E6047486F000FD
:0E00B70000000090E6047488F0000000009045
:0900C500E604E4F0000000002252
:0700CE001200647E007F3088
:0E00D5008E048F05C374FF9C743F9D400D8EFA
:0C00E300828F83E4F0A3AE82AF8380E63E
:0C00EF007E007FF07A007B007C007D002A
:0E00FB00C3E49AE49B74019CE464808DF0637E
:0E010900F08095F0401B8E828F83747AF0A3F5
:0E011700AE82AF830ABA00090BBB00050CBC18
:0301250000D40DF6
:0201280080D184
:04012A007E007F30A4
:0E012E008E048F05C374FF9C743F9D400E8E9F
:0D013C00828F8374AAF0A3AE82AF8380E5AA
:080149007E007F307C007DF098
:0E0151008E028F03C374FF9A74BF8BF063F0AD
:0E015F008095F040188C828D83E0FBA3AC826B
:0E016D00AD838E828F83EBF0A3AE82AF8380D2
:01017B00D5AE
:02017C0080FE03
:06003700E478FFF6D8FD9D
:080015007900E94400601B7A48
:05001D00009001827853
:030022000075A0C6
:0A00250000E493F2A308B8000205FE
:08002F00A0D9F4DAF275A0FF7C
:08003D007800E84400600A7934
:030045000075A0A3
:0600480000E4F309D8FCFE
:08004E007800E84400600C7921
:0B00560000900000E4F0A3D8FCD9FAF1
:03000800758107F8
:0A000B0012017EE58260030200038B
:04017E007582002264
:00000001FF
