:03000000020008F3
:070061007508007509127516
:060068000A00750B107583
:06006E000C00750D117578
:060074000E40750F11752E
:03007A00134C75AF
:03007D00140575F2
:020080001580E9
:0300820002000376
:0500030012043B80FE29
:0E008500AE82AF8390E6787480F090E67974D6
:02009300A2F0D9
:0E00950090E678E0FD30E0F890E678E0FD209F
:0600A300E1047582012258
:0500A90090E679EFF084
:0E00AE0090E678E0FD30E0F890E678E0FD2086
:0600BC00E104758202223E
:0700C2007F0090E679EEF0EB
:0E00C90090E678E0FF30E0F890E678E0FF2067
:0600D700E1047582032222
:0C00DD0090E6787480F090E67974A3F04F
:0E00E90090E678E0FF30E0F890E678E0FF2047
:0600F700E1047582052200
:0500FD00AD16AE17AFC7
:0C0102001890E679E0FC8D828E838FF06F
:03010E00120507D0
:0E01110090E678E0FC30E0F890E678E0FC2024
:06011F00E10475820622D6
:0E01250090E678E0FC30E0F890E678E0FC2010
:06013300E10475820722C1
:0E01390090E679E0FC8D828E838FF012050730
:0E01470090E678E0FC30E0F890E678E0FC20EE
:06015500E104758208229E
:0E015B0074012DFAE43EFB8F0490E679E0F982
:090169008A828B838CF0120507D9
:0E01720090E678E0FC30E0F890E678E0FC20C3
:06018000E1047582082273
:06018600751902751A0054
:0A018C00C3E519941FE51A6480947E
:0A019600805036E5192DF8E51A3EF9
:0E01A000F98F0290E679E0FC888289838AF06C
:0301AE0012050730
:0E01B10090E678E0FC30E0F890E678E0FC2084
:0601BF00E1047582092233
:0701C5000519E4B519C1059D
:0301CC001A80BDD9
:0E01CF0090E6787420F0741F2DFDE43EFE9043
:0D01DD00E679E0FC8D828E838FF01205071D
:0E01EA0090E678E0FC30E0F890E679E0FC8DDD
:0801F800828E838FF0120507CF
:0E02000090E678E0FF30E0F890E678E0FF202E
:06020E00E10475820A22E2
:0602140090E6787440F052
:0E021A0090E678E0FF30E0F890E678E0FF2014
:06022800E10475820B22C7
:04022E007582402273
:0B02320090E67A7401F0007E007F006F
:0D023D00C3EE9480EF648094805013EE2592
:0A024A000EF582EF350FF583E4F0A6
:070254000EBE00E50F80E281
:0A025B0074232508FEE43509FF8531
:030265000E1685ED
:030268000F1775F8
:0C026B001800900400C007C006120085B7
:0E027700AD82D006D0078E828F83EDF07582A7
:02028500002255
:0E02870090E61074A0F090E61174A0F00090C4
:09029500E68D74FFF07582002271
:0B029E0090E6A1E0FF30E1030204370E
:0A02A90090E68DE0F51074FFB5102B
:0402B3000302043707
:0402B7007DC07EE7A1
:0C02BB0090E6A2E0FC20E1F87B007C0053
:0D02C700C3EB9420EC648094805020EB2564
:0A02D4000CF9EC350DFAEB2480F56F
:0E02DE0082EC34E7F583E0F889828A83F00B26
:0602EC00BB00D80C80D518
:0802F2008D038E0479007A00EF
:0C02FA00A8107F00C3E998EA64808FF030
:0C03060063F08095F0501DE9250CF58295
:0C031200EA350DF583E0FF8B828C83F050
:0C031E00A3AB82AC8309B900D30A80D0E5
:0A032A00850882850983745AF005E6
:0603340008E4B508020513
:01033A0009B9
:06033B0090E68FE510F0D2
:0D03410090E6A2E0FF20E1F87DC07EE7AB72
:06034E000CAC0D7F0075F0
:03035400164075DB
:0303570017057512
:06035A00188075190575FD
:0C0360001A008B828C838FF0C006C00551
:0E036C00120488E5828583F0D005D00645F0A6
:08037A0070408D048E07FAFBB0
:0A038200EA250EF582EB350FF58336
:0E038C00E0F960128C828F83E9F0A3AC82AF9F
:08039A00830ABA00E30B80E0C6
:0E03A2008C828F83E4F074012CFDE43FFE7426
:0C03B000012AFCE43BFF90E68FECF0001B
:0703BC00A90CAA0D7B0075DE
:0303C30016467566
:0303C600170575A3
:0603C9001880751905758E
:0C03CF001A0089828A838BF0C006C005EA
:0E03DB00120488E5828583F0D005D00645F037
:0603E9007046F511F5124B
:0603EF00E5112513F8E5FD
:0503F500123514F9AB04
:0C03FA0015888289838BF0120520FB60BF
:0D040600158D828E83EBF0A3AD82AE8305D1
:0604130011E4B511D7054C
:030419001280D37B
:0C041C008D828E83E4F074012511FCE455
:090428003512FF90E68FECF000A4
:0604310090E68D74FFF05F
:0404370075820022A8
:0A043B007508007509127EC87F00E5
:050445001EBEFF011FB7
:0B044A00EE4F70F71202327E007F00C0
:0D045500C3EE9420EF648094805020EE25CB
:080462000AFCEF350BFDEE254D
:0A046A000EF582EF350FF583E0FB7D
:0C0474008C828D83F00EBE00D80F80D566
:03048000120287DE
:0504830012029E80FB47
:06054000676574485700D6
:06054600676574465700D2
:0E054C00465745455052763030302E30303113
:01055A0000A0
:0A048800AD82AE83AFF0E519451A0E
:060492007004900000223E
:05049800AA16AB17AC31
:04049D0018A819A9D9
:0104A1001A40
:0504A20018B8FF01196C
:0E04A700E84960368D828E838FF0120520F5B5
:0C04B5001B6029C000C0018A828B838C70
:0A04C100F0120520F9B51B028006B9
:0604CB00D001D0008010FA
:0904D100D001D0000DBD00010EA8
:0704DA000ABA00C40B80C147
:0E04E1008D828E838FF0120520FD3395E0FF93
:0E04EF008A828B838CF0120520FA3395E0FE92
:0A04FD00EDC39AF582EF9EF583220D
:06003700E478FFF6D8FD9D
:080015007900E94400601B7A48
:05001D000090055B7876
:030022000075A0C6
:0A00250000E493F2A308B8000205FE
:08002F00A0D9F4DAF275A0FF7C
:0E05070020F71030F6118883A88220F507F641
:05051500A883758300BE
:01051A0022BE
:03051B00F280F774
:02051E00F022C9
:08003D007800E84400600A7934
:030045000075A0A3
:0600480000E4F309D8FCFE
:08004E007800E84400600C7921
:0B00560000900000E4F0A3D8FCD9FAF1
:0300080075811BE4
:0A000B0012053CE5826003020003C9
:0E05200020F71430F6148883A88220F507E631
:06052E00A8837583002282
:03053400E280F76B
:03053700E4932228
:02053A00E022BD
:04053C0075820022A2
:00000001FF
