:03000000020008F3
:05006100E4F508F509BB
:0300660002000392
:0500030012021680FE50
:0E00690090E6007410F090E6017443F0000081
:0E00770000000000000090E60174C0F00000E0
:0E00850000000000000090E609E4F00000001A
:0E009300000000000090E609740CF000000070
:0E00A100000000000090E60B7403F000000069
:0E00AF00000000000090E61474E2F000000073
:0E00BD00000000000090E61274A2F0000000A7
:0E00CB00000000000090E6047480F0000000C9
:0E00D900000000000090E6047482F0000000B9
:0E00E700000000000090E6047484F0000000A9
:0E00F500000000000090E6047486F000000099
:0E010300000000000090E6047488F000000088
:0E011100000000000090E604E4F00000000092
:0E011F000000000090E618E4F0000000000070
:0E012D0000000090E6497482F000000000001F
:0E013B0000000090E6497482F0000000000011
:0E01490000000090E670E4F0000000000000EE
:0E015700000075B20075B30075B40075B500F8
:0701650075B50F7E007F005D
:0D016C00C3EE9464EF648094805013EE2580
:0A01790008F582EF3509F583E4F084
:070183000EBE00E50F80E253
:01018A002252
:0E018B0090E690E0FE7F0090E691E0FD7C00A3
:0A0199004207EC42068F0A8E0BE4C9
:0A01A300F50CF50D7A007BF07800F2
:0201AD0079F8DF
:0601AF00C3E50C950AE512
:0601B5000D950B5030E532
:0501BB000C2508FEE523
:0A01C0000D3509FF8A828B83E0FDF4
:0E01CA00A3AA82AB838E828F83EDF088828998
:0C01D80083EDF0A3A882A983050CE4B518
:0601E4000CC9050D80C5E9
:0E01EA00000000000000000090E6497482F062
:0C01F800000000000000000090E698E508
:0B0204000BF00000000000000000AE46
:07020F000A90E699EEF022CF
:0A02160012006975B0007E007F0041
:0E022000C3EE94FFEF6480948F500A75B0080F
:07022E000EBE00EE0F80EB95
:0302350075B000A1
:0802380090E6A3E0FF20E20BB9
:0B02400090E6A5E0FF20E3F812018B20
:04024B007E007F00B2
:0D024F00C3EE9450EF648094805017EE25AC
:0A025C0008F582EF3509F583E0FD97
:0B0266008DB08DB00EBE00E10F80DEF9
:0702710075B0007E007F0064
:0E027800C3EE940FEF64809480500A75B002BC
:070286000EBE00EE0F80EB3D
:04028D007E007F0070
:0E029100C3EE940FEF64809480500A75B003A2
:07029F000EBE00EE0F80EB24
:0502A60075B000808D21
:06003700E478FFF6D8FD9D
:080015007900E94400601B7A48
:05001D00009002AF7825
:030022000075A0C6
:0A00250000E493F2A308B8000205FE
:08002F00A0D9F4DAF275A0FF7C
:08003D007800E84400600A7934
:030045000075A0A3
:0600480000E4F309D8FCFE
:08004E007800E84400600C7921
:0B00560000900000E4F0A3D8FCD9FAF1
:0300080075810DF2
:0A000B001202ABE58260030200035D
:0402AB007582002236
:00000001FF
