:03000000020008F3
:0300610002000397
:0500030012018480FEE3
:2000640090E6007410F090E60174C3F00000000090E609E4F00000000090E609740CF000B2
:2000840000000090E60B7403F00000000090E61474E2F00000000090E61274A2F000000016
:2000A4000090E6047480F00000000090E6047482F00000000090E6047484F000000000908C
:2000C400E6047486F00000000090E6047488F00000000090E604E4F00000000090E618E422
:2000E400F00000000090E6497482F00000000090E6497482F000000000227E007FF07C0037
:200104007DF890E690E0FA7B0090E691E0F87900E84BF508E94AF50978007900C3E8950819
:20012400E99509503B8E828F83E0F50AC394614013E50A2485400DAB0A74E02BFB8C828DEE
:2001440083F0800B8E828F83E0FB8C828D83F008B80001090EBE00010F0CBC00BF0D80BC1C
:200164000000000090E6497482F00000000090E698E509F000000000AE0890E699EEF02225
:1801840012006490E6A3E0FF20E2F890E6A5E0FF20E3F81200FE80EB8B
:06003700E478FFF6D8FD9D
:200015007900E94400601B7A009001A0780075A000E493F2A308B8000205A0D9F4DAF275F1
:02003500A0FF2A
:20003D007800E84400600A790075A000E4F309D8FC7800E84400600C7900900000E4F0A3C3
:04005D00D8FCD9FAF8
:0D00080075810A12019CE58260030200036D
:04019C007582002246
:00000001FF
