:03000000020008F3
:0300610002000397
:0500030012047080FEF4
:200064009010087412F090100574C3F07443F07453F09010047421F090100674A0F09010C1
:20008400077411F07410F0901004E0FE3395E0FFBE1205BF0002800CBE2105BF00028004F8
:2000A4007F0080027F010000000000000000000000000000000000EF6007901008E0FE805F
:2000C400027E1290E600EEF00000000000000000000000000000000000EF6007901005E05B
:2000E400FF80027FC390E601EFF0000000000000000000000000000000000090E60B7403EB
:20010400F0000000000000000000000000000000000090E670E4F000000000000000000031
:20012400000000000000000090E609E4F0000000000000000000000000000000000090E6F2
:2001440014E4F0000000000000000000000000000000000090E612E4F00000000000000057
:200164000000000000000000000090E613E4F000000000000000000000000000000000001E
:2001840090E615E4F0000000000000000000000000000000000090E61AE4F0000000000098
:2001A40000000000000000000000000090E618E4F0000000000000000000000000000000D9
:2001C400000090E61BE4F0000000000000000000000000000000000090E619E4F000000053
:2001E400000000000000000000000000000075B200000000000000000000000000000000D4
:20020400000075B5000000000000000000000000000000000000901004E0FE3395E0FFBEC9
:200224001205BF00028003020319901006E0FD90E614F00000000000000000000000000044
:200244000000000090E6047480F0000000000000000000000000000000000090E6047482CC
:20026400F0000000000000000000000000000000000090E6047484F0000000000000000028
:2002840000000000000000000090E6047486F00000000000000000000000000000000000F6
:2002A40090E6047488F0000000000000000000000000000000000090E604E4F00000000086
:2002C40000000000000000000000000000901007E0FD90E61AF00000000000000000000016
:2002E4000000000000000090E6247402F0000000000000000000000000000000000090E684
:2003040025E4F0000000000000000000000000000000000022BE2105BF00028001229010D6
:2003240006E0FF90E612F0000000000000000000000000000000000090E6097424F0000055
:2003440000000000000000000000000000000090E6047480F000000000000000000000003B
:2003640000000000000090E6047482F0000000000000000000000000000000000090E6049F
:200384007484F0000000000000000000000000000000000090E6047486F00000000000000D
:2003A400000000000000000000000090E6047488F0000000000000000000000000000000D3
:2003C400000090E604E4F0000000000000000000000000000000000090E6497482F0000026
:2003E40000000000000000000000000000000090E6497482F0000000000000000000000054
:20040400000000000000901006E0FF3395E05307037E00BF0005BE00028008BF0333BE0011
:2004240030801790E6497482F0000000000000000000000000000000000090E6497482F0A7
:200444000000000000000000000000000000000000901007E0FF90E618F000000000000094
:1104640000000000000000000000002212006480FE71
:06003700E478FFF6D8FD9D
:200015007900E94400601B7A00900479780075A000E493F2A308B8000205A0D9F4DAF27515
:02003500A0FF2A
:20003D007800E84400600A790075A000E4F309D8FC7800E84400600C7900900000E4F0A3C3
:04005D00D8FCD9FAF8
:0D000800758107120475E582600302000394
:04047500758200226A
:00000001FF
