:03000000020008F3
:20006100752200752312752400752510752600752711752840752911752D4C752E0F752FE3
:0400810080020003F6
:050003001206DF80FE83
:20008500AE82AF8390E6787480F090E67974A2F090E678E0FD30E0F890E678E0FD20E1048F
:2000A5007582012290E679EFF090E678E0FD30E0F890E678E0FD20E104758202227F009086
:2000C500E679EEF090E678E0FF30E0F890E678E0FF20E1047582032290E6787480F090E6D3
:2000E5007974A3F090E678E0FF30E0F890E678E0FF20E10475820522AD10AE11AF1290E603
:2001050079E0FC8D828E838FF012081290E678E0FC30E0F890E678E0FC20E10475820622FA
:2001250090E678E0FC30E0F890E678E0FC20E1047582072290E679E0FC8D828E838FF0127D
:20014500081290E678E0FC30E0F890E678E0FC20E1047582082274012DFAE43EFB8F0490E2
:20016500E679E0F98A828B838CF012081290E678E0FC30E0F890E678E0FC20E104758208E0
:2001850022751302751400C3E513941FE514648094805036E5132DF8E5143EF98F0290E6EC
:2001A50079E0FC888289838AF012081290E678E0FC30E0F890E678E0FC20E1047582092266
:2001C5000513E4B513C1051480BD90E6787420F0741F2DFDE43EFE90E679E0FC8D828E8305
:2001E5008FF012081290E678E0FC30E0F890E679E0FC8D828E838FF012081290E678E0FF1A
:2002050030E0F890E678E0FF20E10475820A2290E6787440F090E678E0FF30E0F890E67887
:20022500E0FF20E10475820B227582402290E67A7401F0007E007F00C3EE9480EF648094DA
:20024500805013EE2528F582EF3529F583E4F00EBE00E50F80E274232522FEE43523FF85AD
:200265002810852911751200900400C007C006120085AD82D006D0078E828F83EDF0758271
:20028500002290E61074A0F090E61174A0F00090E68D74FFF07582002290E6A1E0FF30E19C
:2002A5000302043790E68DE0F52A74FFB52A030204377DC07EE790E6A2E0FC20E1F87B005B
:2002C5007C00C3EB9420EC648094805020EB2526F9EC3527FAEB2480F582EC34E7F583E011
:2002E500F889828A83F00BBB00D80C80D58D038E0479007A00A82A7F00C3E998EA64808FF3
:20030500F063F08095F0501DE92526F582EA3527F583E0FF8B828C83F0A3AB82AC8309B90E
:2003250000D30A80D0852282852383745AF00522E4B52202052390E68FE52AF090E6A2E071
:20034500FF20E1F87DC07EE7AB26AC277F0075102275110F7512807513057514008B828CE9
:20036500838FF0C006C005120793E5828583F0D005D00645F070408D048E07FAFBEA2528FE
:20038500F582EB3529F583E0F960128C828F83E9F0A3AC82AF830ABA00E30B80E08C828F2A
:2003A50083E4F074012CFDE43FFE74012AFCE43BFF90E68FECF000A926AA277B00751028C0
:2003C50075110F75128075130575140089828A838BF0C006C005120793E5828583F0D00568
:2003E500D00645F07046F52BF52CE52B252DF8E52C352EF9AB2F888289838BF0120F02FBA6
:2004050060158D828E83EBF0A3AD82AE83052BE4B52BD7052C80D38D828E83E4F074012587
:200425002BFCE4352CFF90E68FECF00090E68D74FFF075820022AE82AF8390E6787480F0B8
:2004450090E67974A2F090E678E0FD30E0F890E678E0FD20E1047582012290E679EFF09087
:20046500E678E0FD30E0F890E678E0FD20E104758202227F0090E679EEF090E678E0FF3000
:20048500E0F890E678E0FF20E1047582032290E67974FFF090E678E0FF30E0F890E6787408
:2004A50040F0E0FF20E1047582042290E6787480F090E67974A2F090E678E0FF30E0F890DA
:2004C500E678E0FF30E1E475824022AE82AF8390E6787480F090E67974A2F090E678E0FD98
:2004E50030E0F890E678E0FD20E1047582012290E679EFF090E678E0FD30E0F890E678E096
:20050500FD20E104758202227F0090E679EEF090E678E0FF30E0F890E678E0FF20E1047551
:2005250082032290E679E510F090E678E0FF30E0F890E6787440F0E0FF20E10475820422D3
:2005450090E6787480F090E67974A2F090E678E0FF30E0F890E678E0FF30E1E475824022DF
:2005650085823085833185F03290E67A7401F0007B007C00C3EB9480EC648094805013EB1F
:200585002528F582EC3529F583E4F00BBB00E50C80E2740E2530FAE43531FBAC328A828B58
:2005A500838CF0120F02FAA3120F02FB740C2530F8E43531F9AC32888289838CF0120F02B6
:2005C500F8A3120F02F9740A2530FCE43531FEAF328C828E838FF0120F02F533A3120F02B8
:2005E500F53474082530FDE43531FEAF328D828E838FF0120F02F535A3120F02F536AC2825
:20060500AE297F00C002C003C000C001C033C034C035C036C030C031C032742EC0E0740F0F
:20062500C0E07480C0E0C004C006C0071208D8E58124EFF5817E007F00C3EE9420EF64801A
:200645009480503B74022EFCE43FFDEC2522FCED3523FD8E8274042FF583751000C007C08A
:2006650006C005C0041204D0AB82D004D005D006D0078C828D83EBF00EBE00BD0F80BA7E34
:20068500007F00C3EE9420EF64809480504874022EFCE43FFDEC2522FCED3523FD8E0274BD
:2006A500042FFBEE2528F582EF3529F583E0F5108A828B83C007C006C005C0041204D0ABEA
:2006C50082D004D005D006D0078C828D83EBF00EBE00B00F80AD7582002275220075231232
:2006E50075104775110F75128090003775F040120753E4F53FF540754101E4F542F543F569
:20070500447545017546007EC87F001EBEFF011FEE4F70F71202327E007F00C3EE9420EF1F
:20072500648094805020EE2524FCEF3525FDEE2528F582EF3529F583E0FB8C828D83F00E65
:0E074500BE00D80F80D512028712029E80FBE4
:200F22006765744857006765744657004857257376253033782E2530337873253034782E76
:190F420025303478004444535F00465745455052763030302E30303100CD
:2007530085821385831485F015AA10AB11AC12A813A914AF158A828B838CF0120F02FEA3FC
:20077300AA82AB83888289838FF0EE120812A3A882A983EE70DF8513828514838515F02245
:20079300AD82AE83AFF0E5134514700490000022AA10AB11AC12A813A91418B8FF0119E853
:2007B3004960368D828E838FF0120F02F5156029C000C0018A828B838CF0120F02F9B515F5
:2007D300028006D001D0008010D001D0000DBD00010E0ABA00C40B80C18D828E838FF0124E
:1F07F3000F02FD3395E0FF8A828B838CF0120F02FA3395E0FEEDC39AF582EF9EF58322F1
:06003700E478FFF6D8FD9D
:200015007900E94400601B7A00900F66780075A000E493F2A308B8000205A0D9F4DAF2751D
:02003500A0FF2A
:1908120020F71030F6118883A88220F507F6A88375830022F280F7F02268
:20003D007800E84400600A790075A000E4F309D8FC7800E84400600C7900900000E4F0A3C3
:04005D00D8FCD9FAF8
:20082B00C00F85810FC082058105810581E50F24FBF8A90F0909E6F70809E6F70809E6F767
:20084B00A80F080886820886830886F0120F02FAA3120F02FBA3120F02FF74012AFCE43BD2
:20086B00FD8F06A80F080886820886830886F0EC120812A3ED120812A3EE1208128A828B55
:20088B00838FF0A80F08E6120812850F81D00F2285820C85830D85F00E75530C75540075A7
:2008AB005540850856850957850A58850B5990082B1209D2AE82AF83AB0CAC0DAD0E8B82B6
:2008CB008C838DF0E41208128E828F8322C00F85810FE50F24F8FF8F59E50F24FBFF8F535E
:2008EB00755400755540E50F24F8F8865608865708865890082B1209D2AE82AF83E50F2441
:1B090B00FBF886030886040886058B828C838DF0E41208128E828F83D00F2264
:20092600AF82C049C04AC04B743DC0E07409C0E0C047C0488F82221581158115810551E4B6
:20094600B55102055222AF8274302FFF24C6500A74072FFF3000034307208F82020926E55C
:2009660082FFC4540FF582C00712094CD007740F5FF58202094C858210854C11854D12853B
:200986004E13854F14AA50751520EA2AFAE514235401FF8A064EFAE5112511F511E51233B2
:2009A600F512E51333F513E51433F514C3EA95104008EAC39510FA431101D515CD85114CEE
:2009C60085124D85134E85144F8A502285824785834885534985544A85554BE4F551F552EB
:2009E600AD56AE57AF588D828E838FF0120F02FC74012DF556E43EF5578F58ECFF70030282
:200A06000EE3BF25028003020EDBC201C202C203C204C205C206C207C208755A00755B00B8
:200A26007CFFAA56AB57AE588A828B838EF0120F02FFA3AA82AB838A568B578E58BF2507E3
:200A46008F8212092680998F5D74D0255D5026E55D24C64020BCFF12E55B75F00AA4FD2F25
:200A660024D0F55B70C2D20280BEEC75F00AA42F24D0FC80B3BF2E07BCFFAD7C0080A98F07
:200A860005BD6100400CED248540075307DFD2008002C200BF2002806DBF2B028063BF2D2C
:200AA600028059BF42028063BF43028068BF4403020C7CBF4603020C92BF4803020A2EBF48
:200AC6004903020C7CBF4A03020A2EBF4C028040BF4F03020C83BF5003020C11BF530280C0
:200AE6005CBF5403020A2EBF5503020C88BF5803020C8DBF5A03020A2E020C96D201020A09
:200B06002ED203020A2ED204020A2ED206020A2ED207020A2E30060CE55914FE8E598E0155
:200B260087078011E55924FEFE8E598E018705098706198D078F82120926020C9FE559248C
:200B4600FDFE8E598E01870309870509870619198B4C8D4D8E4E8B828D838EF0C004120E2B
:200B6600EAAD82AE83D004BCFF028D0420012CC3ED955B5026E55BC39DF55BAE5B8E031EF8
:200B86008E5BEB6014758220C006C005C004120926D004D005D00680E48E5B8C06854C82AF
:200BA600854D83854EF0120F02FCFF60308E041EC3E464808CF063F08095F050208F82C019
:200BC60006C005120926D005D006AA4CAB4DAC4E0ABA00010B8A4C8B4D8C4E80C0200103B4
:200BE600020C9FC3ED955B4003020C9FE55BC39DF55BAE5B8E041E8E5BEC7003020C9D75A1
:200C06008220C006120926D00680E9E55924FDFC8C598C01870209870309870419198A4C61
:200C26008B4D8C4EAC4EBC800040047F438014BC600040047F50800BBC400040047F4980EA
:200C4600027F588F82C00712092675823A120926758230120926758278120926D007BF4933
:200C660002800BBF50028006854D82120965854C821209658023D205755A0A801C755A08DD
:200C86008017755A0A8012755A10800DD20880098F8212092680028E5B30085CE55924FCCE
:200CA600FE8E598E0187020987030987040987061919198A4C8B4D8C4E8E4F754C5B754DE6
:200CC6000F754E80854C5E854D5F854E607401255EFAE4355FFCAE608A4C8C4D8E4E855E47
:200CE60082855F838560F0120F02FEFF70030209E68F8212092680CCE55A70030209E675F6
:200D06005C1B30062DE55914FC8C598C01E7FA3395E0FBFCFE8A4C8B4D8C4E8E4F200566C5
:200D2600AA4C7B007C007E008A4C8B4D8C4E8E4F8054300721E55924FCFE8E598E01870256
:200D46000987030987040987061919198A4C8B4D8C4E8E4F8030E55924FEFE8E598E018715
:200D66000409870619EE3395E0FBFA8C4C8E4D8B4E8A4F200510AA4CAB4D7C007E008A4CD7
:200D86008B4D8C4E8E4F300525AA4CAB4DAC4EE54FFE30E717C3E49AFAE49BFBE49CFCE407
:200DA6009EFE8A4C8B4D8C4E8E4F8002C205D209A95C7E00755000855A82C006C0011209BD
:200DC6007CD001D00620090DE550C4FCE7FB4CF719895C8002A7500E8E05B209E54C454D04
:200DE600454E454F70CE895C8E05E55B7003755B01200224200121ED04FEAC5BC3EE9C5071
:200E060015758220C006C005C004120926D004D005D0061C80E68C5B30050E75822DC005FC
:200E2600120926D005155B8023ED602030030E75822BC005120926D005155B800F30040C99
:200E4600758220C005120926D005155B200124AE5B8E041E8E5BC3ED9C502B3002047C309A
:200E660080027C208C82C006C005120926D005D00680DEC3ED955B5008E55BC39DF55B8003
:200E860007755B0080028E5BA95C8D068E051EED6026B20920090A09E7C4540FFD8D5080EF
:200EA600078705740F5DF550855082C006C00112094CD001D00680D42001030209E6AE5B16
:200EC6008E051EED70030209E6758220C006120926D00680EB8F821209260209E685518210
:040EE600855283228C
:0B0F5B003C4E4F20464C4F41543E00DE
:180EEA00AA82AB83120F026003A380F8C3E5829AF582E5839BF583221D
:0D000800758160120F1EE582600302000387
:1C0F020020F71430F6148883A88220F507E6A88375830022E280F7E49322E022FE
:040F1E0075820022B6
:00000001FF
